:1000030075A0FEE4F5807F05FEFDFC120046E4F5D5
:1000130008F509AF097407A807088002C333D8FCA1
:10002300F4F5A07F057E007D007C001200460509E3
:10003300E50970020508C39408E5086480948040CC
:03004300D280CB9D
:080092007FB47E49DEFEDFFCB5
:01009A002243
:080046008F0D8E0C8D0B8C0A4E
:10004E00900000AF82AE83EE3395E0FDFCAB0DAABF
:10005E000CA90BA80AD31200704006120092A380BE
:01006E00E2AF
:01006F00226E
:0300000002008675
:0C008600787FE4F6D8FD75810D020003C0
:10007000EB9FF5F0EA9E42F0E99D42F0EC6480C807
:0600800064809845F022A7
:00000001FF
