:10097600C0F9A4B0999282F880908883C6A1868E29
:010986000070
:0E099700010C010208FFF00210FFF0010D013B
:0809B0007F027EC7DEFEDFFCC2
:0109B800221C
:040003007F02DFFE9B
:0100070022D6
:080854008F188E178D168C150C
:10085C00E4F519F51AE47B0AFAF9F8AF18AE17ADFE
:10086C0016AC15120898A804A905AA06AB07AE1970
:10087C00AF1AEE3395E0FDFCD31203AF400D12001E
:0B088C0003051AE51A70CE051980CA9A
:01089700223E
:1008DC007E00120800900977E493F4F5807F027D86
:0308EC00007C008D
:0808EF008F208E1F8D1E8C1D51
:1008F700900000AF82AE83EE3395E0FDFCAB20AAFB
:100907001FA91EA81DD31203AF40061209B0A3806A
:01091700E2FD
:0109180022BC
:1007970020B1127F0A7E001208EB20B10830B1FDAC
:1007A7007E007F012220B01B7F0A7E001208EB200B
:1007B700B01120B0097F0A7E001208EB80F47E009A
:1007C7007F022220B2127F0A7E001208EB20B208B5
:1007D70030B2FD7E007F032220B3157F0A7E001210
:1007E70008EB20B30830B3FD7E007F042230B3FD51
:0507F7007EFF7FFF22E0
:0A09A600EF4E7003D29022C290229F
:100919008F208E1F8D1E8C1D7FCD7ECC7D2C7C461D
:10092900AB20AA1FA91EA81D120106E4FBFA7940F3
:10093900784112020F1202EAC374FF9FFF74FF9EEF
:02094900FE228C
:10098700438901758CCD758AD4D2A9D2AFD28C2276
:0407FC007F077E00F5
:10080000EE7050EFB40800504A900810F828287392
:1008100002082802082C02083302083702083E02A8
:10082000084202084902084DD2A28002C2A2D2A305
:10083000D2A422D2A28002C2A2C2A3D2A422D2A255
:100840008002C2A2D2A3C2A422D2A28002C2A2C2A9
:04085000A3C2A42279
:1004E8001209871207978F14E51424FE600F146011
:1004F8001C14602424037023750D01801EE50CC3B1
:1005080094105004050C8013750C10800EE50CC374
:1005180094014007150C8003750D04E50C650F6008
:1005280040AC0CE41202B6E4FBFA79A0784112025E
:100538000F7BCD7ACC794C783E1200151209198EB2
:10054800088F09C374649509F51174FC9508F510B2
:10055800850913E508F51285110BE510F50A850CD8
:100568000FE50D6401706AFFFE12080075806D12B8
:1005780008E97F017E001208007580730F1208EBEE
:100588007F027E001208007580791208EB7F037ED7
:10059800001208007580791F1208EB7F047E001294
:1005A80008009009831208E4E50CC3940A500B1262
:1005B80007FCE50C9009761208E5E50CC3940A409F
:1005C800107F061208DC1207FCE50C90096C120873
:0A05D800E5E50D640460030204EB86
:1005E200AC0C1202B6E4FBFA79A0784112020F7B3E
:1005F200CD7ACC794C783E120015E4FBFA79C878B2
:10060200421201061202EA8E1B8F1CE4FFFE120840
:100612000075805E1208E97F017E00120800758075
:100622003E0F1208EB7F027E0012080075807812DE
:1006320008EB7F037E0012080075806E1F1208EB24
:10064200C3E51C9464E51B648094805057E51C94B8
:1006520014E51B64809480404B7F067E00120800E4
:10066200AE1BAF1C7C007D0A12036B74762FF582E1
:1006720074093EF583E493F4F5807F027E0012084C
:10068200EB1207FCAE1BAF1C7C007D0A12036B74DD
:10069200762DF58274093CF583E493F4F5807F02AC
:1006A2007E00802CC3E51C9464E51B64809480402A
:1006B200257F051208DC7F067E001208009009766D
:1006C2001208E41207FC900976E493F4F5807F02A5
:1006D2001208EB0204EB7F047E0012080090097BF3
:1006E2001208E47F057E001208007580781208E97E
:1006F2007F067E0012080075805C1208E91207FC72
:060702007580731208E986
:030708000204EBFD
:03000B0002094B9C
:10094B00C0E0E50C7002D29020900D53A01CD29009
:10095B0085128C85138A8010E5A0541C44E3F5A006
:0B096B00C290850A8C850B8AD0E03218
:10000E00020356E86480F8E933E83360110460F0C7
:10001E00ED33EC337009E8FCE9FDEAFEEBFF220458
:10002E0060DED3EB9FEA9EE99DE8C2E78CF0C2F753
:10003E0095F0400CE8CCF8E9CDF9EACEFAEBCFFB1F
:10004E0012032185D0F05804700320D5B3E8047054
:10005E00075002B2D502036092D5EC0460F7E4CCEF
:10006E00C0E0C398F8603B94186008400DD0E0FBE8
:10007E00020338E4FBFAC9FC8028E830E406E4C940
:10008E00FBE4CAFCE830E305E4C9CACBFCE854073C
:10009E006010F8C3E913F9EA13FAEB13FBEC13FC47
:1000AE00D8F130F52FC3E49CFCEF9BFFEE9AFEEDEA
:1000BE0099FDD0E0FBEF4E4D4C701222DB03020394
:1000CE005DEC2CFCEF33FFEE33FEED33FDED30E750
:1000DE00EB020338EF2BFFEE3AFEED39FDD0E0FBDD
:1000EE0050130BBB0003020360ED13FDEE13FEEF86
:0800FE0013FFEC13FC020338B0
:10010600EC4D6011E8497017ED33EC3304600DE4F3
:10011600FCFFFEFD22E933E8330470F802035612B1
:10012600032158046009E4CC2481500628500902B2
:10013600036028400302035DC0E0EB4A7044B980C7
:1001460006D0E0FB02034CEF4E701CBD8008EBFFAF
:10015600EAFEE9FD80EBE98DF0A4FEE5F00201EF91
:10016600E9CDF9EAFEEBFFEF89F0A4FCE5F0CE89D4
:10017600F0A42EFFE435F0CD89F0A42DFEE435F091
:100186008067EF4E7005BD80D780C3EF8BF0A4ACBF
:10019600F0EE8BF0A42CFCE435F0F8EF8AF0A42CFA
:1001A600E5F038FCE433CB8DF0A42CFCE5F03BF80D
:1001B600EE8AF0A42CFCE5F038F8E433CF89F0A4FD
:1001C6002CFCE5F038CF3400CE89F0A42FFFE5F003
:1001D6003EFEE433C98DF0A42EFEE5F039CD8AF05B
:1001E600A42FFFE5F03EFEE43DFD33D0E0FB5007D3
:1001F6000BBB000F020360EC2CFCEF33FFEE33FE6B
:06020600ED33FD02033898
:10020C00020360EC5D046005E859047003020356B8
:10021C00120321580460F6EC4860F2EC7004FDFE09
:10022C00FF22C860DB2481C85009C39860025006C5
:10023C0002035D9850CAF582E9294B4A7005AB82DE
:10024C0002034C75F0007C1A7880C3EF9BEE9AED9C
:10025C0099400DC3EF9BFFEE9AFEED99FDE842F03D
:10026C00DC23ACF0D0E0FFD0E0FED0E0FDAB822090
:10027C00E7101BEB60BAEC2CFCEF33FFEE33FEED1A
:10028C0033FD020338E803F830E705C0F075F000E1
:10029C00EF2FFFEE33FEED33FD40B830E7C280AAFE
:1002AC0075F020800E75F010800575F0087D007ECD
:1002BC00007F003392D530D5031203A1EC334010EC
:1002CC00EF33FFEE33FEED33FDEC33FCD5F0ED22D6
:0E02DC00E5F0247EA2D513CC92E7CDCEFF2212
:1002EA00EDD2E7CD33EC3392D524814006E4FFFE0C
:1002FA00FDFC22FCE4CFCECDCC24E0501174FF806B
:10030A00EDC3CC13CCCD13CDCE13CECF13CF047007
:07031A00F030D5DE0203A163
:10032100E9D2E7C933E833F892D5EDD2E7CD33EC22
:0703310033FC5002B2D5229B
:10033800EC30E7100FBF000C0EBE00080DBD000426
:100348000BEB6014A2D5EB13FCED92E7FD2274FFD2
:10035800FCFDFEFF22E480F8A2D574FF13FC7D802B
:03036800E480EF3F
:0300000002070BE9
:0C070B00787FE4F6D8FD758120020752CB
:10036B00C2D5EC30E709B2D5E4C39DFDE49CFCEEAD
:10037B0030E715B2D5E4C39FFFE49EFE1203C5C35D
:10038B00E49DFDE49CFC80031203C530D507C3E458
:06039B009FFFE49EFE221C
:10089800C2D5E830E70FB2D5E4C39BFBE49AFAE48B
:1008A80099F9E498F8EC30E717B2D51208CE12049B
:1008B80056E4C39BFBE49AFAE499F9E498F88003B8
:1008C80012045630D50DE4C39FFFE49EFEE49DFD5F
:0408D800E49CFC227E
:0E03A100C3E49FFFE49EFEE49DFDE49CFC226D
:1003AF00EB9FF5F0EA9E42F0E99D42F0EC6480C8C5
:0603BF0064809845F02265
:100717000204E8E493A3F8E493A34003F68001F20C
:1007270008DFF48029E493A3F85407240CC8C333E3
:10073700C4540F4420C8834004F456800146F6DFB2
:10074700E4800B0102040810204080900997E47EA2
:10075700019360BCA3FF543F30E509541FFEE493A7
:10076700A360010ECF54C025E060A840B8E493A36E
:10077700FAE493A3F8E493A3C8C582C8CAC583CA99
:10078700F0A3C8C582C8CAC583CADFE9DEE780BE51
:0109A5000051
:1003C500BC000BBE0029EF8DF084FFADF022E4CC1C
:1003D500F875F008EF2FFFEE33FEEC33FCEE9DECE5
:1003E500984005FCEE9DFE0FD5F0E9E4CEFD22ED2B
:1003F500F8F5F0EE8420D21CFEADF075F008EF2F75
:10040500FFED33FD4007985006D5F0F222C398FD65
:050415000FD5F0EA2202
:10041A0075F008758200EF2FFFEE33FECD33CDCC99
:10042A0033CCC58233C5829BED9AEC99E58298401C
:10043A000CF582EE9BFEED9AFDEC99FC0FD5F0D6F9
:10044A00E4CEFBE4CDFAE4CCF9A88222B800C1B923
:10045A000059BA002DEC8BF084CFCECDFCE5F0CB61
:10046A00F97818EF2FFFEE33FEED33FDEC33FCEB9A
:10047A0033FB10D703994004EB99FB0FD8E5E4F955
:10048A00FA227818EF2FFFEE33FEED33FDEC33FC42
:10049A00C933C910D7059BE99A4007EC9BFCE99A36
:1004AA00F90FD8E0E4C9FAE4CCFB2275F010EF2F7B
:1004BA00FFEE33FEED33FDCC33CCC833C810D7077B
:1004CA009BEC9AE899400AED9BFDEC9AFCE899F8B6
:0E04DA000FD5F0DAE4CDFBE4CCFAE4C8F92249
:00000001FF
