:0B05BE00010C010208FFF0020EFFF02C
:0805D4007F027EC7DEFEDFFCA2
:0105DC0022FC
:040003007F02DFFE9B
:0100070022D6
:0804A9008F168E158D148C13C3
:1004B100E4F517F518E47B0AFAF9F8AF16AE15ADB5
:1004C10014AC131204EDA804A905AA06AB07AE17D4
:1004D100AF18EE3395E0FDFCD3120281400D1200FE
:0B04E100030518E51870CE051780CA4F
:0104EC0022ED
:080531007F0A7E007D007C00C2
:080539008F1C8E1B8D1A8C191A
:10054100900000AF82AE83EE3395E0FDFCAB1CAAB8
:100551001BA91AA819D312028140061205D4A3803F
:01056100E2B7
:010562002276
:1004580020B10E12053120B10830B1FD7E007F01B8
:100468002220B01312053120B00D20B0051205313D
:1004780080F87E007F022220B20E12053120B208D9
:1004880030B2FD7E007F032220B31112053120B364
:100498000830B3FD7E007F042230B3FD7EFF7FFF6E
:0104A8002231
:0A05CA00EF4E7003D29022C290227F
:100563008F1C8E1B8D1A8C197FCD7ECC7D2C7C46E7
:10057300AB1CAA1BA91AA81912000EE4FBFA7940B6
:1005830078411201171201F2C374FF9FFF74FF9E9B
:02059300FE2246
:1005AE00438901758CCD758AD4D2A9D2AFD28C2253
:1003F1001205AE1204588F12E51224FD6013047029
:1004010019E50CC3940A5004050C800E750C0A8082
:1004110009E50CD394014002150CE50C650D60D380
:10042100AC0CE41201BEE4FBFA7920784112011709
:100431001205638E088F09C374649509F50F74FC66
:100441009508F50E850911E508F510850F0BE50EE8
:07045100F50A850C0D809CEB
:03000B0002059556
:1005950020900BC2A0D29085108C85118A32D2A0F2
:0905A500C290850A8C850B8A3294
:10000E00EC4D6011E8497017ED33EC3304600DE4EC
:10001E00FCFFFEFD22E933E8330470F802025E12A3
:10002E00022958046009E4CC2481500628500902A4
:10003E000268284003020265C0E0EB4A7044B980B2
:10004E0006D0E0FB020254EF4E701CBD8008EBFFA1
:10005E00EAFEE9FD80EBE98DF0A4FEE5F00200F783
:10006E00E9CDF9EAFEEBFFEF89F0A4FCE5F0CE89CD
:10007E00F0A42EFFE435F0CD89F0A42DFEE435F08A
:10008E008067EF4E7005BD80D780C3EF8BF0A4ACB8
:10009E00F0EE8BF0A42CFCE435F0F8EF8AF0A42CF3
:1000AE00E5F038FCE433CB8DF0A42CFCE5F03BF806
:1000BE00EE8AF0A42CFCE5F038F8E433CF89F0A4F6
:1000CE002CFCE5F038CF3400CE89F0A42FFFE5F0FC
:1000DE003EFEE433C98DF0A42EFEE5F039CD8AF054
:1000EE00A42FFFE5F03EFEE43DFD33D0E0FB5007CC
:1000FE000BBB000F020268EC2CFCEF33FFEE33FE5D
:06010E00ED33FD0202408A
:10011400020268EC5D046005E85904700302025EA3
:10012400120229580460F6EC4860F2EC7004FDFEFB
:10013400FF22C860DB2481C85009C39860025006BE
:100144000202659850CAF582E9294B4A7005AB82D0
:1001540002025475F0007C1A7880C3EF9BEE9AED8E
:1001640099400DC3EF9BFFEE9AFEED99FDE842F036
:10017400DC23ACF0D0E0FFD0E0FED0E0FDAB822089
:10018400E7101BEB60BAEC2CFCEF33FFEE33FEED13
:1001940033FD020240E803F830E705C0F075F000D3
:1001A400EF2FFFEE33FEED33FD40B830E7C280AAF7
:1001B40075F020800E75F010800575F0087D007EC6
:1001C400007F003392D530D503120273EC33401014
:1001D400EF33FFEE33FEED33FDEC33FCD5F0ED22CF
:0E01E400E5F0247EA2D513CC92E7CDCEFF220B
:1001F200EDD2E7CD33EC3392D524814006E4FFFE05
:10020200FDFC22FCE4CFCECDCC24E0501174FF8063
:10021200EDC3CC13CCCD13CDCE13CECF13CF047000
:07022200F030D5DE0202738B
:10022900E9D2E7C933E833F892D5EDD2E7CD33EC1B
:0702390033FC5002B2D52294
:10024000EC30E7100FBF000C0EBE00080DBD00041F
:100250000BEB6014A2D5EB13FCED92E7FD2274FFCB
:10026000FCFDFEFF22E480F8A2D574FF13FC7D8024
:03027000E480EF38
:0300000002036593
:0C036500787FE4F6D8FD75811C0203AC23
:1004ED00C2D5E830E70FB2D5E4C39BFBE49AFAE43A
:1004FD0099F9E498F8EC30E717B2D51205231202FA
:10050D00D3E4C39BFBE49AFAE499F9E498F88003E9
:10051D001202D330D50DE4C39FFFE49EFEE49DFD92
:04052D00E49CFC222C
:0E027300C3E49FFFE49EFEE49DFDE49CFC229C
:10028100EB9FF5F0EA9E42F0E99D42F0EC6480C8F4
:0602910064809845F02294
:100371000203F1E493A3F8E493A34003F68001F2AE
:1003810008DFF48029E493A3F85407240CC8C3338D
:10039100C4540F4420C8834004F456800146F6DF5C
:1003A100E4800B01020408102040809005BEE47E29
:1003B100019360BCA3FF543F30E509541FFEE49351
:1003C100A360010ECF54C025E060A840B8E493A318
:1003D100FAE493A3F8E493A3C8C582C8CAC583CA43
:1003E100F0A3C8C582C8CAC583CADFE9DEE780BEFB
:0105C9000031
:1002970075F008758200EF2FFFEE33FECD33CDCC1E
:1002A70033CCC58233C5829BED9AEC99E5829840A1
:1002B7000CF582EE9BFEED9AFDEC99FC0FD5F0D67E
:1002C700E4CEFBE4CDFAE4CCF9A88222B800C1B9A8
:1002D7000059BA002DEC8BF084CFCECDFCE5F0CBE6
:1002E700F97818EF2FFFEE33FEED33FDEC33FCEB1F
:1002F70033FB10D703994004EB99FB0FD8E5E4F9DA
:10030700FA227818EF2FFFEE33FEED33FDEC33FCC6
:10031700C933C910D7059BE99A4007EC9BFCE99ABA
:10032700F90FD8E0E4C9FAE4CCFB2275F010EF2FFF
:10033700FFEE33FEED33FDCC33CCC833C810D707FF
:100347009BEC9AE899400AED9BFDEC9AFCE899F83A
:0E0357000FD5F0DAE4CDFBE4CCFAE4C8F922CD
:00000001FF
