:1005CC00A1BE30783431A1BFB4D3BBFA41D3A6B4A9
:0605DC00F0A3A10D0A00CE
:1005B1000824000638C868180600082C7FBFDFEF42
:0A05C100F7FBFDFE012301012200FB
:080558008F378E368D358C348F
:10056000900000AF82AE83EE3395E0FDFCAB37AA7E
:0B05700036A935A834D3120382400FD7
:0C057B007538027539C7D539FDD538FA3E
:03058700A380D975
:01058A00224E
:1000030053877F75985053890F438920758BFA75F1
:0B0013008DFAC2ABD2ACD2AFD28E226D
:0805ED008F993099FDC299229B
:0B05E200EF1FAC0670011E4C70F622EB
:03001E008F8022AE
:10058B00D2B6D2B5E4FEEFC4131313540124FF9279
:10059B00B4EF25E0FFC2B60000D2B60EBE08E7C22C
:0505AB00B50000D2B50F
:0105B0002228
:10052100120003E4FDFC74242DF8E6FF12058B7420
:100531002C2DF8E6FF12001E0DBD00010CED640824
:100541004C70E3E522B43105E4F5A080D6E522B490
:0705510030D175A0FF80CC42
:030023000204B222
:1004B200C0E0C0F0C083C082C0D075D000C000C010
:0D04C20001C002C003C004C005C006C00791
:1004CF00309834C298AF99E52324FE600F14601959
:1004DF0024027023BF5E20752302801BBF41057568
:1004EF0023038013752301800E8F227523017BFF59
:0704FF007A0579CC12008898
:10050600D007D006D005D004D003D002D001D00049
:0B051600D0D0D082D083D0F0D0E032F3
:03000000020426D1
:0C042600787FE4F6D8FD75813902046D82
:10038200EB9FF5F0EA9E42F0E99D42F0EC6480C8F2
:0603920064809845F02292
:10002600E517240BF8E60517227808300702780B47
:10003600E475F0011203F00203982000EB7F2ED244
:10004600008018EF540F2490D43440D4FF30040BB2
:10005600EF24BFB41A0050032461FFE518600215AF
:1000660018051BE51B7002051A30070D7808E475A4
:10007600F0011203F0EF0203DE0205ED7403D2076E
:100086008003E4C207F5178B088A09890AE4F51884
:10009600F51AF51BE51860077F2012006180F575DB
:1000A60019FFC201C200C202C203C205C206C208CB
:1000B60012002FFF700D3007057F00120072AF1B74
:1000C600AE1A22B4255FC2D5C20412002FFF24D077
:1000D600B40A00501A75F00A781830D50508B6FF2C
:1000E6000106C6A426F620D5047002D20380D924C0
:1000F600CFB41A00EF5004C2E5D204020272D20154
:1001060080C6D20080C0D20280BCD2D580BAD205C9
:1001160080B47F201200612002077401B5180040E8
:10012600F1120026FF12006102009AD208D2068060
:1001360095120026FB120026FA120026F94A4B7089
:100146000679437A037BFF20022EE518602A7E009B
:100156008E827583001203B160060EEE651970F08B
:10016600C2D5EBC0E0EAC0E0E9C0E0EE1202B9D0C9
:10017600E0F9D0E0FAD0E0FB120398FF60AAEBC0EA
:10018600E0EAC0E0E9C0E0120061D0E02401F9D065
:10019600E03400FAD0E0FBE5190460DCD519D9801B
:1001A600877BFF7A0279B5D202809C79108002792A
:1001B60008C206C2088008D2D5790A8004790AC224
:1001C600D5E519047002F519E4FAFDFEFF120026C2
:1001D600FC7B08200113120026FD7B1030000A125A
:1001E6000026FE120026FF7B20EC3382D592D550E6
:1001F60013C3E43000069FFFE49EFEE42001039D46
:10020600FDE49CFCE4CBF8C201EC700CCFCECDCC67
:10021600E824F8F870F38017C3EF33FFEE33FEEDF2
:1002260033FDEC33FCEB33FB994002FB0FD8E9EBD3
:10023600300105F8D0E0C448B201C0E00AEC4D4EEA
:100246004F78207B0070C2EAB5190040BCC0E012AE
:1002560002BBD0F0D0E0200104C4C0E0C4B201C0AB
:10026600F012004AD0F0D5F0EB02009A1204000119
:10027600375301B15801084C01044201B54F01BD85
:0F0286004401BD49011D4301C35501A74601A70E
:100295004501A747036350010C2D01102E01332B97
:1002A500011423013120034C2A00CC480000012B06
:1002B5003F3F3F00790AA2D5200314300509B91044
:1002C500020404B9080104A2D52006025001042045
:1002D50002689202B518005034C0E07F203003193F
:1002E5007F30A20272067205500F120312C202C2BB
:1002F50006C205C2087F30800F300503E9C0E01251
:100305000061300503D0E0F9D0E0B518CC30051711
:100315007F30B9100C1200617F583004077F788058
:1003250003B908031200613002057F2D0200617FC9
:10033500202008F87F2B2006F322920280CF286E1A
:10034500756C6C2900D2011200263001F8C20178C3
:100355001830D50108F60200CC2D5043495812003B
:10036500262403B405004001E490035E9312005275
:0D037500743A120052D2037518040201B14F
:10043200020521E493A3F8E493A34003F68001F2BA
:1004420008DFF48029E493A3F85407240CC8C333CB
:10045200C4540F4420C8834004F456800146F6DF9A
:10046200E4800B01020408102040809005B1E47E74
:10047200019360BCA3FF543F30E509541FFEE4938F
:10048200A360010ECF54C025E060A840B8E493A356
:10049200FAE493A3F8E493A3C8C582C8CAC583CA81
:1004A200F0A3C8C582C8CAC583CADFE9DEE780BE39
:0105CB00002F
:10039800BB010689828A83E0225002E722BBFE0263
:0903A800E32289828A83E4932296
:1003B100BB010CE58229F582E5833AF583E0225001
:1003C10006E92582F8E622BBFE06E92582F8E2224B
:0D03D100E58229F582E5833AF583E4932265
:1003DE00BB010689828A83F0225002F722BBFE01FE
:0203EE00F322F8
:1003F000FAE6FB0808E6F925F0F618E6CA3AF6220E
:10040000D083D082F8E4937012740193700DA3A38B
:1004100093F8740193F5828883E47374029368609F
:06042000EFA3A3A380DF9F
:00000001FF
