:03001F004F4E0041
:10144E00010F010209FFF00215FFF0011101011455
:0B145E0001010800011000021700054A
:100F48001214DA12146A7BFF7A00791F1207FFE580
:100F5800181518AE17700215174E702B12149C7CBA
:100F6800007D101205EA8E0D8F0EC3E50E941DE567
:100F78000D6480948040087510017517008005E4A1
:100F8800F510F517751832E50824D0FFC394014011
:100F980008EFD3941050028F0F12112E8F1BE51BF0
:100FA80024FE600F14601C14602424037023751140
:100FB80001801EE50FC394105004050F8013750FB0
:100FC80010800EE50FC394014007150F80037511BB
:100FD80004E50F65136040AC0FE412033BE4FBFA31
:100FE80079A078411202277BCD7ACC794C783E12D1
:100FF800002D1213AF8E098F0AC37464950AF51673
:1010080074FC9509F515850A1AE509F51985160C74
:0D101800E515F50B850F13120C0C020F5798
:10000E00C0F9A4B0999282F880908883C6A1868E9A
:01001E0000E1
:100C0C00E51164016003020CD7FFFE12121A758005
:100C1C006D7F017E007D007C001213E17F017E0060
:100C2C0012121A7580737F017E007D007C001213F6
:100C3C00E17F027E0012121A7580797F017E007DA1
:100C4C00007C001213E17F037E0012121A7580796A
:100C5C007F017E007D007C001213E17F047E001278
:100C6C00121A90001BE493F4F5807F017E007D0046
:100C7C007C001213E1E50FC3940A5017121216E50B
:100C8C000F90000E93F4F5807F017E007D007C00B8
:100C9C001213E1E50FC3940A40317F067E00121255
:100CAC001A90000FE493F4F5807F017E007D007CA8
:100CBC00001213E1121216E50F90000493F4F58064
:100CCC007F017E007D007C001213E1E5116404605D
:040CDC0003020E669B
:100CE000AC0F12033BE4FBFA79A078411202277B98
:100CF000CD7ACC794C783E12002DE4FBFA79C87895
:100D00004212011E12036F8E3F8F40E4FFFE12124B
:100D10001A75805E7F017E007D007C001213E17FEA
:100D2000017E0012121A75803E7F017E007D007CDC
:100D3000001213E17F027E0012121A7580787F0183
:100D40007E007D007C001213E17F037E0012121AE8
:100D500075806E7F017E007D007C001213E1C3E58B
:100D6000409464E53F648094805058E5409414E5D5
:100D70003F64809480404C7F067E0012121AAE3F82
:100D8000AF407C007D0A1205EA740E2FF5827400D4
:100D90003EF583E493F4F5807F017E007D007C00C6
:100DA0001213E1121216AE3FAF407C007D0A12050D
:100DB000EA740E2DF58274003CF583E493F4F5801B
:100DC000020E5BC3E5409464E53F6480948040413B
:100DD0007F057E0012121A90000FE493F4F5807FD5
:100DE000017E007D007C001213E17F067E0012125E
:100DF0001A90000EE493F4F5807F017E007D007C64
:100E0000001213E112121690000EE493F4F58080A4
:100E10004A7F047E0012121A900013E493F4F580C6
:100E20007F017E007D007C001213E17F057E0012B1
:100E3000121A7580787F017E007D007C001213E11C
:100E40007F067E0012121A75805C7F017E007D0095
:100E50007C001213E11212167580737F017E007DF3
:060E6000007C001213E10A
:010E66002269
:041216007F077E00D0
:10121A00EE7050EFB40800504A90122AF82828734A
:10122A0002124202124602124D02125102125802D0
:10123A00125C021263021267D2A28002C2A2D2A375
:10124A00D2A422D2A28002C2A2C2A3D2A422D2A231
:10125A008002C2A2D2A3C2A422D2A28002C2A2C285
:04126A00A3C2A42255
:0814F4007F027EC7DEFEDFFC73
:0114FC0022CD
:04150D007F02DFFE7C
:0115110022B7
:08126E008F5E8E5D8D5C8C5BD0
:10127600E4F55FF560E47B0AFAF9F8AF5EAE5DADC2
:101286005CAC5B1212B2A804A905AA06AB07AE5F56
:10129600AF60EE3395E0FDFCD312062E400D12151D
:0B12A6000D0560E56070CE055F80CA9A
:0112B100221A
:0813E1008F448E438D428C41C4
:1013E900900000AF82AE83EE3395E0FDFCAB44AADA
:1013F90043A942A841D312062E40061214F4A38031
:01140900E200
:01140A0022BF
:10112E0020B1167F0A7E007D007C001213E120B1F3
:10113E000830B1FD7E007F012220B0237F0A7E00A1
:10114E007D007C001213E120B01520B00D7F0A7EC9
:10115E00007D007C001213E180F07E007F022220D1
:10116E00B2167F0A7E007D007C001213E120B208C9
:10117E0030B2FD7E007F032220B3197F0A7E007DF0
:10118E00007C001213E120B30830B3FD7E007F0413
:09119E002230B3FD7EFF7FFF2229
:0A14EA00EF4E7003D29022C2902250
:1013AF008F428E418D408C3F7FCD7ECC7D2C7C46F5
:1013BF00AB42AA41A940A83F12011EE4FBFA7940B3
:1013CF00784112022712036FC374FF9FFF74FF9EB1
:0213DF00FE22EC
:1014DA00438901758CCD758AD4D2A9D2AFD28C2218
:03000B0002137667
:10137600C0E0E510600A758CFB758AAEB2958026D2
:10138600E50F7002D29020900D53A01CD2908519C3
:101396008C851A8A8010E5A0541C44E3F5A0C290FF
:0913A600850B8C850C8AD0E03225
:1014B300A1BE30783431A1BFB4D3BBFA41D3A6B4B3
:0614C300F0A3A10D0A00D8
:080003008F993099FDC299228A
:10146A0053877F75985053890F438920758BFA7576
:0B147A008DFAC2ABD2ACD2AFD28E22F2
:030023000211A720
:1011A700C0E0C0F0C083C082C0D075D000C000C00E
:0D11B70001C002C003C004C005C006C0078F
:1011C400309834C298AF99E51424FE600F14601966
:1011D40024027023BF5E20751402801BBF41057575
:1011E40014038013751401800E8F087514017BFF9E
:0711F4007A1479B31207FF22
:1011FB00D007D006D005D004D003D002D001D00048
:0B120B00D0D0D082D083D0F0D0E032F1
:1010B100121485AC06AD07EC120336E4FBFA79C8CD
:1010C100784012011EE4FBFAF9783F12002DE4FB8F
:1010D100FA79C87842120227E4FBFA79E8784112DA
:1010E10002C4600250447F647E007D007C001213C4
:1010F100E1121485AC06AD07EC120336E4FBFA7974
:10110100C8784012011EE4FBFAF9783F12002DE481
:10111100FBFA79C87842120227E4FBFA79E87841B0
:0D1121001202C4600250057F01227F0022EF
:1014C900C0F9A4B0999282F880908883C6A1868ECB
:0114D9000012
:10143000D3EF9400EE940040147D6E7C00ED1D709F
:0D144000011CED4C70F7EF1F70E61E80E3FD
:01144D00227C
:10140B00C2B77B46AF031BEF70FAD2B7E4FB30B722
:10141B00117F017E001214300BEBD3940540EF7F4C
:04142B0000227F011B
:01142F00229A
:0C12F60012140B7F017E001214307FCC1C
:10130200E4FBFAC2B70541E54170020540EF1392D2
:10131200B7754000754106E5411541AC40700215B4
:10132200404C70F3D2B7EFC313FF0BBB00010AEBC3
:0513320064084A70CEC2
:011337002293
:101338007D087C00C2B70FBF0000D2B70FBF000006
:101348000FBF0000A2B7E433C43333335480FBE942
:10135800C3134BF97E007F04EF1FAA0670011E4AD3
:0D13680070F6ED1D70011CED4C70C9AF0159
:011375002255
:0814FD001212F67F44021302F3
:081505001212F67FBE02130270
:10148500E4FFFE1214FD1215051213388F611213B5
:0614950038EFFEE561FFE7
:01149B00222E
:10149C00E4FFFE1214FD1215051213388F3F1213C0
:0614AC0038EFFEE53FFFF2
:0114B2002217
:040E6700AB07AA0625
:100E6B00C3EA648094805010750040EB1B70011A2C
:100E7B006303FF6302FF8003E4F500AD03AC02ECF8
:100E8B001203368F1F8E1E8D1D8C1CE4FFFE7DC83A
:100E9B007C40AB1FAA1EA91DA81C12011EE4FBFA65
:100EAB00F9783F12002D12036FAA06AB077C277D42
:100EBB0010AF03AE021205EA7E037FE8CFCDCFCE93
:100ECB00CCCE1205EA74C92FF58274143EF583E477
:100EDB0093F4F5007C037DE8AF03AE021205EA7EC6
:100EEB00007F64CFCDCFCECCCE1205EA74C92FF5DF
:100EFB008274143EF583E493F4F5007C007D64AFBB
:100F0B0003AE021205EA7E007F0ACFCDCFCECCCE48
:100F1B001205EA74C92FF58274143EF583E493F439
:100F2B00F500AE02AF037C007D0A1205EA74C92DF1
:0C0F3B00F58274143CF583E493F4F50097
:010F47002287
:100026000203DBE86480F8E933E83360110460F02A
:10003600ED33EC337009E8FCE9FDEAFEEBFF220440
:1000460060DED3EB9FEA9EE99DE8C2E78CF0C2F73B
:1000560095F0400CE8CCF8E9CDF9EACEFAEBCFFB07
:100066001203A685D0F05804700320D5B3E80470B7
:10007600075002B2D50203E592D5EC0460F7E4CC52
:10008600C0E0C398F8603B94186008400DD0E0FBD0
:100096000203BDE4FBFAC9FC8028E830E406E4C9A3
:1000A600FBE4CAFCE830E305E4C9CACBFCE8540724
:1000B6006010F8C3E913F9EA13FAEB13FBEC13FC2F
:1000C600D8F130F52FC3E49CFCEF9BFFEE9AFEEDD2
:1000D60099FDD0E0FBEF4E4D4C701222DB0302037C
:1000E600E2EC2CFCEF33FFEE33FEED33FDED30E7B3
:1000F600EB0203BDEF2BFFEE3AFEED39FDD0E0FB40
:1001060050130BBB00030203E5ED13FDEE13FEEFE8
:0801160013FFEC13FC0203BD12
:10011E00EC4D6011E8497017ED33EC3304600DE4DB
:10012E00FCFFFEFD22E933E8330470F80203DB1214
:10013E0003A658046009E4CC248150062850090215
:10014E0003E52840030203E2C0E0EB4A7044B980A5
:10015E0006D0E0FB0203D1EF4E701CBD8008EBFF12
:10016E00EAFEE9FD80EBE98DF0A4FEE5F002020760
:10017E00E9CDF9EAFEEBFFEF89F0A4FCE5F0CE89BC
:10018E00F0A42EFFE435F0CD89F0A42DFEE435F079
:10019E008067EF4E7005BD80D780C3EF8BF0A4ACA7
:1001AE00F0EE8BF0A42CFCE435F0F8EF8AF0A42CE2
:1001BE00E5F038FCE433CB8DF0A42CFCE5F03BF8F5
:1001CE00EE8AF0A42CFCE5F038F8E433CF89F0A4E5
:1001DE002CFCE5F038CF3400CE89F0A42FFFE5F0EB
:1001EE003EFEE433C98DF0A42EFEE5F039CD8AF043
:1001FE00A42FFFE5F03EFEE43DFD33D0E0FB5007BB
:10020E000BBB000F0203E5EC2CFCEF33FFEE33FECD
:06021E00ED33FD0203BDFB
:100224000203E5EC5D046005E8590470030203DB96
:100234001203A6580460F6EC4860F2EC7004FDFE6C
:10024400FF22C860DB2481C85009C39860025006AD
:100254000203E29850CAF582E9294B4A7005AB8241
:100264000203D175F0007C1A7880C3EF9BEE9AEDFF
:1002740099400DC3EF9BFFEE9AFEED99FDE842F025
:10028400DC23ACF0D0E0FFD0E0FED0E0FDAB822078
:10029400E7101BEB60BAEC2CFCEF33FFEE33FEED02
:1002A40033FD0203BDE803F830E705C0F075F00044
:1002B400EF2FFFEE33FEED33FD40B830E7C280AAE6
:1002C40074F8CC6480CCC86480C8F582046043C3ED
:1002D400EB9FF5F0EA9E42F0E99D42F0E89C45F080
:1002E40060305018E5825FFFE582F42B5582FB50A5
:1002F400210ABA001D09B90019088016E5825BFBC2
:10030400E582F42F5582FF50090EBE00050DBD0095
:10031400010CC3EB9FF5F0EA9E42F0E99D42F0E840
:0D0324009C45F06007CC4820E701B3EC22B7
:1003310075F020800E75F010800575F0087D007E47
:10034100007F003392D530D503120620EC334010E4
:10035100EF33FFEE33FEED33FDEC33FCD5F0ED2250
:0E036100E5F0247EA2D513CC92E7CDCEFF228C
:10036F00EDD2E7CD33EC3392D524814006E4FFFE86
:10037F00FDFC22FCE4CFCECDCC24E0501174FF80E5
:10038F00EDC3CC13CCCD13CDCE13CECF13CF047082
:07039F00F030D5DE0206205C
:10079D00E5562442F8E6055622783F30100278429D
:1007AD00E475F0011206440205922009EB7F2ED26A
:1007BD00098018EF540F2490D43440D4FF300D0B22
:1007CD00EF24BFB41A0050032461FFE557600215F2
:1007DD0057055AE55A7002055930100D783FE475EA
:1007ED00F001120644EF0205D80200037403D21083
:1007FD008003E4C210F5568B3F8A408941E4F557DA
:10080D00F559F55AE55760077F201207D880F57521
:10081D0058FFC20AC209C20BC20CC20EC20FC211CE
:10082D001207A6FF700D3010057F001207E9AF5AB1
:10083D00AE5922B4255FC2D5C20D1207A6FF24D032
:10084D00B40A00501A75F00A785730D50508B6FF6E
:10085D000106C6A426F620D5047002D20C80D92438
:10086D00CFB41A00EF5004C2E5D20D020AD6D20A57
:10087D0080C6D20980C0D20B80BCD2D580BAD20E30
:10088D0080B47F201207D8200B077401B5570040A4
:10089D00F112079DFF1207D8020811D211D20F8055
:1008AD009512079DFB12079DFA12079DF94A4B7091
:1008BD000679CD7A0B7BFF200B2EE557602A7E0043
:1008CD008E827583001205AB60060EEE655870F0D2
:1008DD00C2D5EBC0E0EAC0E0E9C0E0EE120B36D0C5
:1008ED00E0F9D0E0FAD0E0FB120592FF60AAEBC070
:1008FD00E0EAC0E0E9C0E01207D8D0E02401F9D069
:10090D00E03400FAD0E0FBE5580460DCD558D9801E
:10091D0087D20B80A2120B1960F7E55870010412F3
:10092D0003F0A958600DE558600914F558120BC075
:10093D00EF60F3EA30E702F404C3995077EAF42547
:10094D00580430E701E404F558800D120B1960C10D
:10095D00EA055825581203F0EA7855F630E701E418
:10096D00255804D55804200E0114120B36E4C0E0AE
:10097D00120BC07855E6601320E70714F61207C076
:10098D00802204F6D0E014C0E07F001207C0E558C5
:10099D0060071207B71558800B300E031207B7D03A
:1009AD00E0020811D0E00480C5120B1960A0E558D3
:1009BD00041203F07855EAF6E558200E02600104A2
:0509CD002404120B36AA
:1009D20074FF04C0E0120BC01207C0E558200E02DB
:1009E20060031207B7D0E0B558E87F451207CA780E
:1009F20055E67F2B30E7047F2DF404C0E01207D8C0
:100A0200D0E075F00A84C0F01207C1D0E01207C12D
:100A1200020811791080027908C20FC2118008D22F
:100A2200D5790A8004790AC2D5E558047002F558CE
:100A3200E4FAFDFEFF12079DFC7B08200A13120751
:100A42009DFD7B1030090A12079DFE12079DFF7B58
:100A520020EC3382D592D55013C3E43009069FFFB0
:100A6200E49EFEE4200A039DFDE49CFCE4CBF8C274
:100A72000AEC700CCFCECDCCE824F8F870F38017D6
:100A8200C3EF33FFEE33FEED33FDEC33FCEB33FB10
:100A9200994002FB0FD8E9EB300A05F8D0E0C448D0
:100AA200B20AC0E00AEC4D4E4F78207B0070C2EAD9
:100AB200B5580040BCC0E0120B38D0F0D0E0200A9C
:100AC20004C4C0E0C4B20AC0F01207C1D0F0D5F02D
:100AD200EB02081112065408AE530A1558087F4C4F
:100AE200087B420A194F0A21440A21490894430A01
:100AF200275509584609B6450922470BED50088388
:100B02002D08872E08AA2B088B2308A8200BD62A8B
:100B1200084348000008A2E558B4FF0375580612BE
:100B2200079DFC12079DFD12079DFE12079DFF788F
:100B32004E02041F790AA2D5200C14300E09B910F6
:100B4200020404B9080104A2D5200F0250010420B6
:100B52000B68920BB557005034C0E07F20300C195F
:100B62007F30A20B720F720E500F120B8FC20BC28C
:100B72000FC20EC2117F30800F300E03E9C0E012A7
:100B820007D8300E03D0E0F9D0E0B557CC300E17BD
:100B92007F30B9100C1207D87F58300D077F78804C
:100BA20003B908031207D8300B057F2D0207D87F3F
:100BB200202011F87F2B200FF322920B80CF7F0091
:100BC200B407005005244EF8E6FF22286E756C6CBF
:100BD2002900D20A12079D300AF8C20A785730D586
:100BE2000108F60208432D5043495812079D240379
:100BF200B405004001E4900BE8931207C9743A125D
:0A0C020007C9D20C755704020A1549
:1003A600E9D2E7C933E833F892D5EDD2E7CD33EC9D
:0703B60033FC5002B2D52216
:1003BD00EC30E7100FBF000C0EBE00080DBD0004A1
:1003CD000BEB6014A2D5EB13FCED92E7FD2274FF4D
:1003DD00FCFDFEFF22E480F8A2D574FF13FC7D80A6
:0303ED00E480EFBA
:1003F000F920E72824F950037907E4F42402FB18D4
:10040000DBFDE624FB5014E9600DE4F618E604F683
:0F041000B40A08E4F6D9F57401F60A22C2D5221F
:10041F00ED33EC3392D5FA602AB4FF33EDC2E77BAC
:10042F00FF60067A047944E4227A04794D20D504DA
:10043F007A047948224E614E002B494E46002D49D1
:10044F004E4600E47A08F608DAFC7B00740722E8CF
:10045F00C0E0ECC0E0EDC0E0EEC0E0EFC0E0EA7558
:10046F00F010A4CAABF075F04DA42BFBE435F0FCF3
:10047F00EA2410FAEB34C5FBEC34D9FCEDC2E7FFEC
:10048F0075F056A4F42411C5F0F434C58FF0A42AE6
:10049F00E5F03BE43CF620E714120552D0E0FFD024
:1004AF00E0FED0E0FDD0E0FC1202278014F404122D
:1004BF000552D0E0FFD0E0FED0E0FDD0E0FC12010D
:1004CF001ED0E0F8E6FAEDD2E7CD33EC332482FB11
:1004DF00E4C3CF33CFCE33CECD33CD33DBF37B0776
:1004EF0075F00A846004F6081B0AE5F0F6088FF031
:1004FF00740AA4FFACF08EF0740AA42CFEACF0507A
:10050F00010C8DF0740AA42CFDE435F0F608DBDE47
:03051F007407223C
:100522003F8000004120000042C80000447A0000E1
:10053200461C400047C35000497424004B18968063
:100542004CBEBC205A0E1BCA6753C21C749DC5AE5A
:10055200FB60065407601C2323120580EB543860AD
:100562000912056C12057B12011EECF8EDF9EEFA88
:10057200EFCB22EB12057B80F1543803241C90054B
:1005820022FE93FC0EEE93FD0EEE930ECE93FF220F
:03000000021025C6
:0C102500787FE4F6D8FD75816102106C44
:10059200BB010689828A83E0225002E722BBFE0267
:0905A200E32289828A83E493229A
:1005AB00BB010CE58229F582E5833AF583E0225005
:1005BB0006E92582F8E622BBFE06E92582F8E2224F
:0D05CB00E58229F582E5833AF583E4932269
:1005D800BB010689828A83F0225002F722BBFE0102
:0205E800F322FC
:1005EA00C2D5EC30E709B2D5E4C39DFDE49CFCEE2C
:1005FA0030E715B2D5E4C39FFFE49EFE12067AC324
:10060A00E49DFDE49CFC800312067A30D507C3E41E
:06061A009FFFE49EFE229A
:1012B200C2D5E830E70FB2D5E4C39BFBE49AFAE467
:1012C20099F9E498F8EC30E717B2D51212E8120750
:1012D2000BE4C39BFBE49AFAE499F9E498F88003DF
:1012E20012070B30D50DE4C39FFFE49EFEE49DFD83
:0412F200E49CFC225A
:0E062000C3E49FFFE49EFEE49DFDE49CFC22EB
:10062E00EB9FF5F0EA9E42F0E99D42F0EC6480C843
:06063E0064809845F022E3
:10064400FAE6FB0808E6F925F0F618E6CA3AF622B7
:10065400D083D082F8E4937012740193700DA3A335
:1006640093F8740193F5828883E473740293686049
:06067400EFA3A3A380DF49
:10103100020F48E493A3F8E493A34003F68001F27E
:1010410008DFF48029E493A3F85407240CC8C333C0
:10105100C4540F4420C8834004F456800146F6DF8F
:10106100E4800B010204081020408090144EE47EBD
:10107100019360BCA3FF543F30E509541FFEE49384
:10108100A360010ECF54C025E060A840B8E493A34B
:10109100FAE493A3F8E493A3C8C582C8CAC583CA76
:1010A100F0A3C8C582C8CAC583CADFE9DEE780BE2E
:011469000082
:10067A00BC000BBE0029EF8DF084FFADF022E4CC64
:10068A00F875F008EF2FFFEE33FEEC33FCEE9DEC2D
:10069A00984005FCEE9DFE0FD5F0E9E4CEFD22ED73
:1006AA00F8F5F0EE8420D21CFEADF075F008EF2FBD
:1006BA00FFED33FD4007985006D5F0F222C398FDAE
:0506CA000FD5F0EA224B
:1006CF0075F008758200EF2FFFEE33FECD33CDCCE2
:1006DF0033CCC58233C5829BED9AEC99E582984065
:1006EF000CF582EE9BFEED9AFDEC99FC0FD5F0D642
:1006FF00E4CEFBE4CDFAE4CCF9A88222B800C1B96C
:10070F000059BA002DEC8BF084CFCECDFCE5F0CBA9
:10071F00F97818EF2FFFEE33FEED33FDEC33FCEBE2
:10072F0033FB10D703994004EB99FB0FD8E5E4F99D
:10073F00FA227818EF2FFFEE33FEED33FDEC33FC8A
:10074F00C933C910D7059BE99A4007EC9BFCE99A7E
:10075F00F90FD8E0E4C9FAE4CCFB2275F010EF2FC3
:10076F00FFEE33FEED33FDCC33CCC833C810D707C3
:10077F009BEC9AE899400AED9BFDEC9AFCE899F8FE
:0E078F000FD5F0DAE4CDFBE4CCFAE4C8F92291
:00000001FF
