:101434004F4E00A1BE2564A1BF00A1BE3078343157
:10144400A1BF4F56455254454D5020252E32660DAE
:021454000A008C
:1013E8000168010264FFF0026FFFF0016B01016EFA
:1013F80001016300016A00016900027100000261D5
:0614080003E8025F000092
:10132F007FE87E037D007C001213BE1214E41214BA
:10133F00747BFF7A14793480147BFF7A1479370524
:10134F0072E5728571467002057114F5471207FF39
:02135F0080E725
:10000E00C0F9A4B0999282F880908883C6A1868E9A
:01001E0000E1
:100C0C00E56B64016003020CD7FFFE12113D758089
:100C1C006D7F017E007D007C001213BE7F017E0083
:100C2C0012113D7580737F017E007D007C001213D4
:100C3C00BE7F027E0012113D7580797F017E007DA2
:100C4C00007C001213BE7F037E0012113D7580796B
:100C5C007F017E007D007C001213BE7F047E00129B
:100C6C00113D90001BE493F4F5807F017E007D0024
:100C7C007C001213BEE568C3940A5017121139E5B3
:100C8C006890000E93F4F5807F017E007D007C005F
:100C9C001213BEE568C3940A40317F067E00121120
:100CAC003D90000FE493F4F5807F017E007D007C85
:100CBC00001213BE121139E56890000493F4F5800C
:100CCC007F017E007D007C001213BEE56B64046026
:040CDC0003020E669B
:100CE000AC6812033BE4FBFA79A078411202277B3F
:100CF000CD7ACC794C783E12002DE4FBFA79C87895
:100D00004212011E12036F8E168F17E4FFFE12119E
:100D10003D75805E7F017E007D007C001213BE7FEA
:100D2000017E0012113D75803E7F017E007D007CBA
:100D3000001213BE7F027E0012113D7580787F0184
:100D40007E007D007C001213BE7F037E0012113DE9
:100D500075806E7F017E007D007C001213BEC3E5AE
:100D6000179464E516648094805058E5179414E550
:100D70001664809480404C7F067E0012113DAE16B2
:100D8000AF177C007D0A1205EA740E2FF5827400FD
:100D90003EF583E493F4F5807F017E007D007C00C6
:100DA0001213BE121139AE16AF177C007D0A120560
:100DB000EA740E2DF58274003CF583E493F4F5801B
:100DC000020E5BC3E5179464E5166480948040418D
:100DD0007F057E0012113D90000FE493F4F5807FB3
:100DE000017E007D007C001213BE7F067E00121182
:100DF0003D90000EE493F4F5807F017E007D007C41
:100E0000001213BE12113990000EE493F4F58080A5
:100E10004A7F047E0012113D900013E493F4F580A4
:100E20007F017E007D007C001213BE7F057E0012D4
:100E3000113D7580787F017E007D007C001213BE1D
:100E40007F067E0012113D75805C7F017E007D0073
:100E50007C001213BE1211397580737F017E007DF4
:060E6000007C001213BE2D
:010E66002269
:041139007F077E00AE
:10113D00EE7050EFB40800504A90114DF828287306
:10114D0002116502116902117002117402117B0204
:10115D00117F02118602118AD2A28002C2A2D2A3ED
:10116D00D2A422D2A28002C2A2C2A3D2A422D2A20F
:10117D008002C2A2D2A3C2A422D2A28002C2A2C263
:04118D00A3C2A42233
:1012B200E4FFFE12113D900010E493F4F5800F7DDF
:1012C200007C001211E87F017E0012113D90001196
:1012D200E493F4F5807D007C001211E87F037E0028
:0F12E20012113D7580B97F017D007C000211E87B
:10119100E4F51AE51A14601414601914601A146045
:1011A1001F14602024057022D2A28002C2A2D2A301
:1011B100D2A48016D2A28002C2A2C2A3D2A4800A63
:1011C100D2A28002C2A2D2A3C2A47475251AF8E6E3
:1011D100F5807F0A7E007D007C001211E8051AE58A
:0611E1001AC3940640ADA4
:0111E70022E5
:0814FE007F027EC7DEFEDFFC69
:0115060022C2
:041517007F02DFFE72
:01151B0022AD
:0811E8008F0B8E0A8D098C08A3
:1011F000E4F50CF50DE47B0AFAF9F8AF0BAE0AAD95
:1012000009AC0812122CA804A905AA06AB07AE0C5B
:10121000AF0DEE3395E0FDFCD312062E400D1215F6
:0B12200017050DE50D70CE050C80CA0F
:01122B0022A0
:0813BE008F468E458D448C43DF
:1013C600900000AF82AE83EE3395E0FDFCAB46AAFB
:1013D60045A944A843D312062E40061214FEA38044
:0113E600E224
:0113E70022E3
:1010510020B1167F0A7E007D007C001213BE20B1F4
:101061000830B1FD7E007F012220B0237F0A7E007F
:101071007D007C001213BE20B01520B00D7F0A7ECA
:10108100007D007C001213BE80F07E007F022220D2
:10109100B2167F0A7E007D007C001213BE20B208CA
:1010A10030B2FD7E007F032220B3197F0A7E007DCE
:1010B100007C001213BE20B30830B3FD7E007F0414
:0910C1002230B3FD7EFF7FFF2207
:0A14F400EF4E7003D29022C2902246
:101361008F118E108D0F8C0E7FCD7ECC7D2C7C4607
:10137100AB11AA10A90FA80E12011EE4FBFA7940C5
:10138100784112022712036FC374FF9FFF74FF9EFF
:02139100FE223A
:1014E400438901758CCD758AD4D2A9D2AFD28C220E
:03000B000213934A
:10139300C0E0E5687002D29020900D53A01CD2905B
:1013A30085738C85748A8010E5A0541C44E3F5A0F2
:0B13B300C29085668C85678AD0E0320E
:1014BD00A1BE30783431A1BFB4D3BBFA41D3A6B4A9
:0614CD00F0A3A10D0A00CE
:080003008F993099FDC299228A
:1014740053877F75985053890F438920758BFA756C
:0B1484008DFAC2ABD2ACD2AFD28E22E8
:030023000210CAFE
:1010CA00C0E0C0F0C083C082C0D075D000C000C0EC
:0D10DA0001C002C003C004C005C006C0076D
:1010E700309834C298AF99E56E24FE600F146019EA
:1010F70024027023BF5E20756E02801BBF410575F9
:101107006E038013756E01800E8F63756E017BFF12
:071117007A1479BD1207FFF5
:10111E00D007D006D005D004D003D002D001D00025
:0B112E00D0D0D082D083D0F0D0E032CF
:1014D300C0F9A4B0999282F880908883C6A1868EC1
:0114E3000008
:10145600D3EF9400EE940040147D6E7C00ED1D7079
:0D146600011CED4C70F7EF1F70E61E80E3D7
:011473002256
:10140F00C2B77B46AF031BEF70FAD2B7E4FB30B71E
:10141F00117F017E001214560BEBD3940540EF7F22
:04142F0000227F0117
:011433002296
:0C12700012140F7F017E001214567FCC78
:10127C00E4FBFAC2B70519E51970020518EF1392D1
:10128C00B7751800751906E5191519AC1870021503
:10129C00184C70F3D2B7EFC313FF0BBB00010AEB72
:0512AC0064084A70CE49
:0112B100221A
:1012F1007D087C00C2B70FBF0000D2B70FBF00004E
:101301000FBF0000A2B7E433C43333335480FBE989
:10131100C3134BF97E007F04EF1FAA0670011E4A1A
:0D13210070F6ED1D70011CED4C70C9AF01A0
:01132E00229C
:081507001212707F4402127CF5
:08150F001212707FBE02127C73
:10148F00E4FFFE12150712150F1212F18F1C121224
:06149F00F1EFFEE51CFF69
:0114A5002224
:1014A600E4FFFE12150712150F1212F18F1D12120C
:0614B600F1EFFEE51DFF51
:0114BC00220D
:040E6700AB07AA0625
:100E6B00C3EA648094805010757540EB1B70011AB7
:100E7B006303FF6302FF8003E4F575AD03AC02EC83
:100E8B001203368F158E148D138C12E4FFFE7DC862
:100E9B007C40AB15AA14A913A81212011EE4FBFA8D
:100EAB00F9783F12002D12036FAA06AB077C277D42
:100EBB0010AF03AE021205EA7E037FE8CFCDCFCE93
:100ECB00CCCE1205EA74D32FF58274143EF583E46D
:100EDB0093F4F5767C037DE8AF03AE021205EA7E50
:100EEB00007F64CFCDCFCECCCE1205EA74D32FF5D5
:100EFB008274143EF583E493F4F5777C007D64AF44
:100F0B0003AE021205EA7E007F0ACFCDCFCECCCE48
:100F1B001205EA74D32FF58274143EF583E493F42F
:100F2B00F578AE02AF037C007D0A1205EA74D32D6F
:0C0F3B00F58274143CF583E493F4F5791E
:010F47002287
:100FD40012148FAC06AD07EC120336E4FBFA79C8A1
:100FE400784012011EE4FBFAF9783F12002DE4FB6D
:100FF400FA79C87842120227E4FBFA79E8784112B8
:1010040002C4600250447F647E007D007C001213A1
:10101400BE12148FAC06AD07EC120336E4FBFA796A
:10102400C8784012011EE4FBFAF9783F12002DE45F
:10103400FBFA79C87842120227E4FBFA79E878418E
:0D1044001202C4600250057F01227F0022CD
:100026000203DBE86480F8E933E83360110460F02A
:10003600ED33EC337009E8FCE9FDEAFEEBFF220440
:1000460060DED3EB9FEA9EE99DE8C2E78CF0C2F73B
:1000560095F0400CE8CCF8E9CDF9EACEFAEBCFFB07
:100066001203A685D0F05804700320D5B3E80470B7
:10007600075002B2D50203E592D5EC0460F7E4CC52
:10008600C0E0C398F8603B94186008400DD0E0FBD0
:100096000203BDE4FBFAC9FC8028E830E406E4C9A3
:1000A600FBE4CAFCE830E305E4C9CACBFCE8540724
:1000B6006010F8C3E913F9EA13FAEB13FBEC13FC2F
:1000C600D8F130F52FC3E49CFCEF9BFFEE9AFEEDD2
:1000D60099FDD0E0FBEF4E4D4C701222DB0302037C
:1000E600E2EC2CFCEF33FFEE33FEED33FDED30E7B3
:1000F600EB0203BDEF2BFFEE3AFEED39FDD0E0FB40
:1001060050130BBB00030203E5ED13FDEE13FEEFE8
:0801160013FFEC13FC0203BD12
:10011E00EC4D6011E8497017ED33EC3304600DE4DB
:10012E00FCFFFEFD22E933E8330470F80203DB1214
:10013E0003A658046009E4CC248150062850090215
:10014E0003E52840030203E2C0E0EB4A7044B980A5
:10015E0006D0E0FB0203D1EF4E701CBD8008EBFF12
:10016E00EAFEE9FD80EBE98DF0A4FEE5F002020760
:10017E00E9CDF9EAFEEBFFEF89F0A4FCE5F0CE89BC
:10018E00F0A42EFFE435F0CD89F0A42DFEE435F079
:10019E008067EF4E7005BD80D780C3EF8BF0A4ACA7
:1001AE00F0EE8BF0A42CFCE435F0F8EF8AF0A42CE2
:1001BE00E5F038FCE433CB8DF0A42CFCE5F03BF8F5
:1001CE00EE8AF0A42CFCE5F038F8E433CF89F0A4E5
:1001DE002CFCE5F038CF3400CE89F0A42FFFE5F0EB
:1001EE003EFEE433C98DF0A42EFEE5F039CD8AF043
:1001FE00A42FFFE5F03EFEE43DFD33D0E0FB5007BB
:10020E000BBB000F0203E5EC2CFCEF33FFEE33FECD
:06021E00ED33FD0203BDFB
:100224000203E5EC5D046005E8590470030203DB96
:100234001203A6580460F6EC4860F2EC7004FDFE6C
:10024400FF22C860DB2481C85009C39860025006AD
:100254000203E29850CAF582E9294B4A7005AB8241
:100264000203D175F0007C1A7880C3EF9BEE9AEDFF
:1002740099400DC3EF9BFFEE9AFEED99FDE842F025
:10028400DC23ACF0D0E0FFD0E0FED0E0FDAB822078
:10029400E7101BEB60BAEC2CFCEF33FFEE33FEED02
:1002A40033FD0203BDE803F830E705C0F075F00044
:1002B400EF2FFFEE33FEED33FD40B830E7C280AAE6
:1002C40074F8CC6480CCC86480C8F582046043C3ED
:1002D400EB9FF5F0EA9E42F0E99D42F0E89C45F080
:1002E40060305018E5825FFFE582F42B5582FB50A5
:1002F400210ABA001D09B90019088016E5825BFBC2
:10030400E582F42F5582FF50090EBE00050DBD0095
:10031400010CC3EB9FF5F0EA9E42F0E99D42F0E840
:0D0324009C45F06007CC4820E701B3EC22B7
:1003310075F020800E75F010800575F0087D007E47
:10034100007F003392D530D503120620EC334010E4
:10035100EF33FFEE33FEED33FDEC33FCD5F0ED2250
:0E036100E5F0247EA2D513CC92E7CDCEFF228C
:10036F00EDD2E7CD33EC3392D524814006E4FFFE86
:10037F00FDFC22FCE4CFCECDCC24E0501174FF80E5
:10038F00EDC3CC13CCCD13CDCE13CECF13CF047082
:07039F00F030D5DE0206205C
:10079D00E55A2446F8E6055A227843301002784689
:1007AD00E475F0011206440205922009EB7F2ED26A
:1007BD00098018EF540F2490D43440D4FF300D0B22
:1007CD00EF24BFB41A0050032461FFE55B600215EE
:1007DD005B055EE55E7002055D30100D7843E475D6
:1007ED00F001120644EF0205D80200037403D21083
:1007FD008003E4C210F55A8B438A448945E4F55BC6
:10080D00F55DF55EE55B60077F201207D880F57515
:10081D005CFFC20AC209C20BC20CC20EC20FC211CA
:10082D001207A6FF700D3010057F001207E9AF5EAD
:10083D00AE5D22B4255FC2D5C20D1207A6FF24D02E
:10084D00B40A00501A75F00A785B30D50508B6FF6A
:10085D000106C6A426F620D5047002D20C80D92438
:10086D00CFB41A00EF5004C2E5D20D020AD6D20A57
:10087D0080C6D20980C0D20B80BCD2D580BAD20E30
:10088D0080B47F201207D8200B077401B55B0040A0
:10089D00F112079DFF1207D8020811D211D20F8055
:1008AD009512079DFB12079DFA12079DF94A4B7091
:1008BD000679CD7A0B7BFF200B2EE55B602A7E003F
:1008CD008E827583001205AB60060EEE655C70F0CE
:1008DD00C2D5EBC0E0EAC0E0E9C0E0EE120B36D0C5
:1008ED00E0F9D0E0FAD0E0FB120592FF60AAEBC070
:1008FD00E0EAC0E0E9C0E01207D8D0E02401F9D069
:10090D00E03400FAD0E0FBE55C0460DCD55CD98016
:10091D0087D20B80A2120B1960F7E55C70010412EF
:10092D0003F0A95C600DE55C600914F55C120BC069
:10093D00EF60F3EA30E702F404C3995077EAF42547
:10094D005C0430E701E404F55C800D120B1960C105
:10095D00EA055C255C1203F0EA7859F630E701E40C
:10096D00255C04D55C04200E0114120B36E4C0E0A6
:10097D00120BC07859E6601320E70714F61207C072
:10098D00802204F6D0E014C0E07F001207C0E55CC1
:10099D0060071207B7155C800B300E031207B7D036
:1009AD00E0020811D0E00480C5120B1960A0E55CCF
:1009BD00041203F07859EAF6E55C200E026001049A
:0509CD002404120B36AA
:1009D20074FF04C0E0120BC01207C0E55C200E02D7
:1009E20060031207B7D0E0B55CE87F451207CA780A
:1009F20059E67F2B30E7047F2DF404C0E01207D8BC
:100A0200D0E075F00A84C0F01207C1D0E01207C12D
:100A1200020811791080027908C20FC2118008D22F
:100A2200D5790A8004790AC2D5E55C047002F55CC6
:100A3200E4FAFDFEFF12079DFC7B08200A13120751
:100A42009DFD7B1030090A12079DFE12079DFF7B58
:100A520020EC3382D592D55013C3E43009069FFFB0
:100A6200E49EFEE4200A039DFDE49CFCE4CBF8C274
:100A72000AEC700CCFCECDCCE824F8F870F38017D6
:100A8200C3EF33FFEE33FEED33FDEC33FCEB33FB10
:100A9200994002FB0FD8E9EB300A05F8D0E0C448D0
:100AA200B20AC0E00AEC4D4E4F78207B0070C2EAD9
:100AB200B55C0040BCC0E0120B38D0F0D0E0200A98
:100AC20004C4C0E0C4B20AC0F01207C1D0F0D5F02D
:100AD200EB02081112065408AE530A1558087F4C4F
:100AE200087B420A194F0A21440A21490894430A01
:100AF200275509584609B6450922470BED50088388
:100B02002D08872E08AA2B088B2308A8200BD62A8B
:100B1200084348000008A2E55CB4FF03755C0612B6
:100B2200079DFC12079DFD12079DFE12079DFF788F
:100B32005202041F790AA2D5200C14300E09B910F2
:100B4200020404B9080104A2D5200F0250010420B6
:100B52000B68920BB55B005034C0E07F20300C195B
:100B62007F30A20B720F720E500F120B8FC20BC28C
:100B72000FC20EC2117F30800F300E03E9C0E012A7
:100B820007D8300E03D0E0F9D0E0B55BCC300E17B9
:100B92007F30B9100C1207D87F58300D077F78804C
:100BA20003B908031207D8300B057F2D0207D87F3F
:100BB200202011F87F2B200FF322920B80CF7F0091
:100BC200B4070050052452F8E6FF22286E756C6CBB
:100BD2002900D20A12079D300AF8C20A785B30D582
:100BE2000108F60208432D5043495812079D240379
:100BF200B405004001E4900BE8931207C9743A125D
:0A0C020007C9D20C755B04020A1545
:1003A600E9D2E7C933E833F892D5EDD2E7CD33EC9D
:0703B60033FC5002B2D52216
:1003BD00EC30E7100FBF000C0EBE00080DBD0004A1
:1003CD000BEB6014A2D5EB13FCED92E7FD2274FF4D
:1003DD00FCFDFEFF22E480F8A2D574FF13FC7D80A6
:0303ED00E480EFBA
:1003F000F920E72824F950037907E4F42402FB18D4
:10040000DBFDE624FB5014E9600DE4F618E604F683
:0F041000B40A08E4F6D9F57401F60A22C2D5221F
:10041F00ED33EC3392D5FA602AB4FF33EDC2E77BAC
:10042F00FF60067A047944E4227A04794D20D504DA
:10043F007A047948224E614E002B494E46002D49D1
:10044F004E4600E47A08F608DAFC7B00740722E8CF
:10045F00C0E0ECC0E0EDC0E0EEC0E0EFC0E0EA7558
:10046F00F010A4CAABF075F04DA42BFBE435F0FCF3
:10047F00EA2410FAEB34C5FBEC34D9FCEDC2E7FFEC
:10048F0075F056A4F42411C5F0F434C58FF0A42AE6
:10049F00E5F03BE43CF620E714120552D0E0FFD024
:1004AF00E0FED0E0FDD0E0FC1202278014F404122D
:1004BF000552D0E0FFD0E0FED0E0FDD0E0FC12010D
:1004CF001ED0E0F8E6FAEDD2E7CD33EC332482FB11
:1004DF00E4C3CF33CFCE33CECD33CD33DBF37B0776
:1004EF0075F00A846004F6081B0AE5F0F6088FF031
:1004FF00740AA4FFACF08EF0740AA42CFEACF0507A
:10050F00010C8DF0740AA42CFDE435F0F608DBDE47
:03051F007407223C
:100522003F8000004120000042C80000447A0000E1
:10053200461C400047C35000497424004B18968063
:100542004CBEBC205A0E1BCA6753C21C749DC5AE5A
:10055200FB60065407601C2323120580EB543860AD
:100562000912056C12057B12011EECF8EDF9EEFA88
:10057200EFCB22EB12057B80F1543803241C90054B
:1005820022FE93FC0EEE93FD0EEE930ECE93FF220F
:03000000020F48A4
:0C0F4800787FE4F6D8FD75817F020F8FE2
:10059200BB010689828A83E0225002E722BBFE0267
:0905A200E32289828A83E493229A
:1005AB00BB010CE58229F582E5833AF583E0225005
:1005BB0006E92582F8E622BBFE06E92582F8E2224F
:0D05CB00E58229F582E5833AF583E4932269
:1005D800BB010689828A83F0225002F722BBFE0102
:0205E800F322FC
:1005EA00C2D5EC30E709B2D5E4C39DFDE49CFCEE2C
:1005FA0030E715B2D5E4C39FFFE49EFE12067AC324
:10060A00E49DFDE49CFC800312067A30D507C3E41E
:06061A009FFFE49EFE229A
:10122C00C2D5E830E70FB2D5E4C39BFBE49AFAE4ED
:10123C0099F9E498F8EC30E717B2D512126212075C
:10124C000BE4C39BFBE49AFAE499F9E498F8800365
:10125C0012070B30D50DE4C39FFFE49EFEE49DFD09
:04126C00E49CFC22E0
:0E062000C3E49FFFE49EFEE49DFDE49CFC22EB
:10062E00EB9FF5F0EA9E42F0E99D42F0EC6480C843
:06063E0064809845F022E3
:10064400FAE6FB0808E6F925F0F618E6CA3AF622B7
:10065400D083D082F8E4937012740193700DA3A335
:1006640093F8740193F5828883E473740293686049
:06067400EFA3A3A380DF49
:100F540002132FE493A3F8E493A34003F68001F271
:100F640008DFF48029E493A3F85407240CC8C3339E
:100F7400C4540F4420C8834004F456800146F6DF6D
:100F8400E4800B01020408102040809013E8E47E02
:100F9400019360BCA3FF543F30E509541FFEE49362
:100FA400A360010ECF54C025E060A840B8E493A329
:100FB400FAE493A3F8E493A3C8C582C8CAC583CA54
:100FC400F0A3C8C582C8CAC583CADFE9DEE780BE0C
:01140E0000DD
:10067A00BC000BBE0029EF8DF084FFADF022E4CC64
:10068A00F875F008EF2FFFEE33FEEC33FCEE9DEC2D
:10069A00984005FCEE9DFE0FD5F0E9E4CEFD22ED73
:1006AA00F8F5F0EE8420D21CFEADF075F008EF2FBD
:1006BA00FFED33FD4007985006D5F0F222C398FDAE
:0506CA000FD5F0EA224B
:1006CF0075F008758200EF2FFFEE33FECD33CDCCE2
:1006DF0033CCC58233C5829BED9AEC99E582984065
:1006EF000CF582EE9BFEED9AFDEC99FC0FD5F0D642
:1006FF00E4CEFBE4CDFAE4CCF9A88222B800C1B96C
:10070F000059BA002DEC8BF084CFCECDFCE5F0CBA9
:10071F00F97818EF2FFFEE33FEED33FDEC33FCEBE2
:10072F0033FB10D703994004EB99FB0FD8E5E4F99D
:10073F00FA227818EF2FFFEE33FEED33FDEC33FC8A
:10074F00C933C910D7059BE99A4007EC9BFCE99A7E
:10075F00F90FD8E0E4C9FAE4CCFB2275F010EF2FC3
:10076F00FFEE33FEED33FDCC33CCC833C810D707C3
:10077F009BEC9AE899400AED9BFDEC9AFCE899F8FE
:0E078F000FD5F0DAE4CDFBE4CCFAE4C8F92291
:00000001FF
