:10034E00C0F9A4B0999282F880908883C6A1868E57
:01035E00009E
:08036B007F027EC7DEFEDFFC0D
:010373002267
:040374007F02DFFE27
:010378002262
:0D0284007C007D05120003EE3395E0FDFCCB
:080291008F0F8E0E8D0D8C0CF9
:10029900E4F510F511E47B0AFAF9F8AF0FAE0EADEB
:1002A9000DAC0C1202D5A804A905AA06AB07AE101D
:1002B900AF11EE3395E0FDFCD3120015400D12038A
:0B02C900740511E51170CE051080CA0D
:0102D4002207
:0B031900E493F4F5807F027D007C007F
:080324008F108E0F8D0E8C0D61
:10032C00900000AF82AE83EE3395E0FDFCAB10AADB
:10033C000FA90EA80DD3120015400612036BA38053
:01034C00E2CE
:01034D00228D
:1001C400E4F50C75900FE590640F605D7F017E008F
:1001D400120320E590640F605075900FAF90EF24E8
:1001E400F5601024FE601114601324077012E4F506
:1001F40012800D75120180087512028003751203B6
:100204007590F0AF90EF2450601124E0601124F059
:10021400601124707013851212800E7404800674A9
:0B022400088002740C2512F512AF12C6
:01022F0022AC
:10023000EE7050EFB40800504A900240F82828733E
:1002400002025802025C02026302026702026E02AC
:10025000027202027902027DD2A28002C2A2D2A35D
:10026000D2A422D2A28002C2A2C2A3D2A422D2A22B
:100270008002C2A2D2A3C2A422D2A28002C2A2C27F
:04028000A3C2A4224F
:1000F900E4F50AF50B1201C47508008F09E4FFFE47
:1001090012023075806D12031E7F017E00120230CB
:100119007580730F1203207F027E001202307580F2
:10012900791203207F037E001202307580791F1235
:1001390003207F047E0012023090035B120319C36F
:10014900E509940AE5086480948050167F077E00CB
:10015900120230744E2509F58274033508F58312AD
:100169000319C3E509940AE50864809480402A7F4D
:10017900067E0012023090034F1203197F077E009A
:1001890012023074442509F58274033508F583E4B5
:1001990093F4F5807F0112032053A01CAE08AF0928
:1001A900120284E5A0541C44E3F5A0C37410950918
:0B01B900FFE49508FE1202840200FE25
:0300000002035F99
:0C035F00787FE4F6D8FD7581120200F9E9
:10000300EF8DF0A4A8F0CF8CF0A428CE8DF0A42E11
:02001300FE22CB
:1002D500C2D5E830E70FB2D5E4C39BFBE49AFAE454
:1002E50099F9E498F8EC30E717B2D512030B120030
:1002F50067E4C39BFBE49AFAE499F9E498F8800370
:1003050012006730D50DE4C39FFFE49EFEE49DFD1A
:04031500E49CFC2246
:10001500EB9FF5F0EA9E42F0E99D42F0EC6480C862
:0600250064809845F02202
:10002B0075F008758200EF2FFFEE33FECD33CDCC8C
:10003B0033CCC58233C5829BED9AEC99E58298400F
:10004B000CF582EE9BFEED9AFDEC99FC0FD5F0D6EC
:10005B00E4CEFBE4CDFAE4CCF9A88222B800C1B916
:10006B000059BA002DEC8BF084CFCECDFCE5F0CB54
:10007B00F97818EF2FFFEE33FEED33FDEC33FCEB8D
:10008B0033FB10D703994004EB99FB0FD8E5E4F948
:10009B00FA227818EF2FFFEE33FEED33FDEC33FC35
:1000AB00C933C910D7059BE99A4007EC9BFCE99A29
:1000BB00F90FD8E0E4C9FAE4CCFB2275F010EF2F6E
:1000CB00FFEE33FEED33FDCC33CCC833C810D7076E
:1000DB009BEC9AE899400AED9BFDEC9AFCE899F8A9
:0E00EB000FD5F0DAE4CDFBE4CCFAE4C8F9223C
:00000001FF
