:0311E4004F4E006B
:10000E00010D010209FFF00212FFF0010E010111B4
:04001E0001010800D4
:100DFA001211BC12117A7BFF7A1179E4120792E57B
:100E0A000824D0FFC394014008EFD3941050028FF6
:100E1A000D120F2B8F16E51624FE600F14601C149A
:100E2A00602424037023750E01801EE50DC39410FF
:100E3A005004050D8013750D10800EE50DC3940145
:100E4A004007150D8003750E04E50D65106040AC72
:100E5A000DE41202CEE4FBFA79A078411202277B54
:100E6A00CD7ACC794C783E12002D1210F38E098F70
:100E7A000AC37464950AF51374FC9509F512850A78
:100E8A0015E509F51485130CE512F50B850D1012FD
:050E9A000B9F020E0990
:1011AB00C0F9A4B0999282F880908883C6A1868EEC
:0111BB000033
:100B9F00E50E64016003020C6AFFFE1210177580E8
:100BAF006D7F017E007D007C001211507F017E0061
:100BBF001210177580737F017E007D007C0012116B
:100BCF00507F027E001210177580797F017E007DA5
:100BDF00007C001211507F037E0012101775807970
:100BEF007F017E007D007C001211507F047E001279
:100BFF0010179011B8E493F4F5807F017E007D000B
:100C0F007C00121150E50DC3940A5017121013E512
:100C1F000D9011AB93F4F5807F017E007D007C0079
:100C2F00121150E50DC3940A40317F067E00121059
:100C3F00179011ACE493F4F5807F017E007D007C6A
:100C4F0000121150121013E50D9011A193F4F580BD
:100C5F007F017E007D007C00121150E50E64046060
:040C6F0003020DF976
:100C7300AC0D1202CEE4FBFA79A078411202277B75
:100C8300CD7ACC794C783E12002DE4FBFA79C87802
:100C93004212011E1203028E3F8F40E4FFFE121028
:100CA3001775805E7F017E007D007C001211507FEE
:100CB300017E0012101775803E7F017E007D007C4F
:100CC300001211507F027E001210177580787F0189
:100CD3007E007D007C001211507F037E00121017EE
:100CE30075806E7F017E007D007C00121150C3E58C
:100CF300409464E53F648094805058E5409414E543
:100D03003F64809480404C7F067E00121017AE3FF4
:100D1300AF407C007D0A12057D74AB2FF582741100
:100D23003EF583E493F4F5807F017E007D007C0033
:100D3300121150121013AE3FAF407C007D0A120512
:100D43007D74AB2DF58274113CF583E493F4F58047
:100D5300020DEEC3E5409464E53F64809480404116
:100D63007F057E001210179011ACE493F4F5807F99
:100D7300017E007D007C001211507F067E00121060
:100D8300179011ABE493F4F5807F017E007D007C26
:100D9300001211501210139011ABE493F4F58080FC
:100DA3004A7F047E001210179011B0E493F4F5808B
:100DB3007F017E007D007C001211507F057E0012B2
:100DC30010177580787F017E007D007C0012115022
:100DD3007F067E0012101775805C7F017E007D0008
:100DE3007C001211501210137580737F017E007DF9
:060DF300007C001211500B
:010DF90022D7
:041013007F077E00D5
:10101700EE7050EFB40800504A901027F828287354
:1010270002103F02104302104A02104E02105502EE
:101037001059021060021064D2A28002C2A2D2A389
:10104700D2A422D2A28002C2A2C2A3D2A422D2A236
:101057008002C2A2D2A3C2A422D2A28002C2A2C28A
:04106700A3C2A4225A
:0811D6007F027EC7DEFEDFFC94
:0111DE0022EE
:0411DF007F02DFFEAE
:0111E30022E9
:08106B008F1A8E198D188C17E5
:10107300E4F51BF51CE47B0AFAF9F8AF1AAE19ADD7
:1010830018AC171210AFA804A905AA06AB07AE1B2C
:10109300AF1CEE3395E0FDFCD31205C1400D1211D8
:0B10A300DF051CE51C70CE051B80CA99
:0110AE00221F
:081150008F448E438D428C4157
:10115800900000AF82AE83EE3395E0FDFCAB44AA6D
:1011680043A942A841D31205C140061211D6A38053
:01117800E294
:011179002253
:100F2B0020B1167F0A7E007D007C0012115020B18B
:100F3B000830B1FD7E007F012220B0237F0A7E00A6
:100F4B007D007C0012115020B01520B00D7F0A7E61
:100F5B00007D007C0012115080F07E007F02222069
:100F6B00B2167F0A7E007D007C0012115020B20861
:100F7B0030B2FD7E007F032220B3197F0A7E007DF5
:100F8B00007C0012115020B30830B3FD7E007F04AB
:090F9B002230B3FD7EFF7FFF222E
:0A11CC00EF4E7003D29022C2902271
:1010F3008F428E418D408C3F7FCD7ECC7D2C7C46B4
:10110300AB42AA41A940A83F12011EE4FBFA794071
:101113007841120227120302C374FF9FFF74FF9EDC
:02112300FE22AA
:1011BC00438901758CCD758AD4D2A9D2AFD28C2239
:03000B00021125BA
:10112500C0E0E50D7002D29020900D53A01CD29026
:1011350085148C85158A8010E5A0541C44E3F5A020
:0B114500C290850B8C850C8AD0E03234
:10119500A1BE30783431A1BFB4D3BBFA41D3A6B4D4
:0611A500F0A3A10D0A00F9
:080003008F993099FDC299228A
:10117A0053877F75985053890F438920758BFA7569
:0B118A008DFAC2ABD2ACD2AFD28E22E5
:03002300020FA425
:100FA400C0E0C0F0C083C082C0D075D000C000C013
:0D0FB40001C002C003C004C005C006C00794
:100FC100309834C298AF99E51124FE600F1460196E
:100FD10024027023BF5E20751102801BBF4105757D
:100FE10011038013751101800E8F087511017BFFAC
:070FF1007A117995120792B5
:100FF800D007D006D005D004D003D002D001D0004D
:0B100800D0D0D082D083D0F0D0E032F6
:1000260002036EE86480F8E933E83360110460F097
:10003600ED33EC337009E8FCE9FDEAFEEBFF220440
:1000460060DED3EB9FEA9EE99DE8C2E78CF0C2F73B
:1000560095F0400CE8CCF8E9CDF9EACEFAEBCFFB07
:1000660012033985D0F05804700320D5B3E8047024
:10007600075002B2D502037892D5EC0460F7E4CCBF
:10008600C0E0C398F8603B94186008400DD0E0FBD0
:10009600020350E4FBFAC9FC8028E830E406E4C910
:1000A600FBE4CAFCE830E305E4C9CACBFCE8540724
:1000B6006010F8C3E913F9EA13FAEB13FBEC13FC2F
:1000C600D8F130F52FC3E49CFCEF9BFFEE9AFEEDD2
:1000D60099FDD0E0FBEF4E4D4C701222DB0302037C
:1000E60075EC2CFCEF33FFEE33FEED33FDED30E720
:1000F600EB020350EF2BFFEE3AFEED39FDD0E0FBAD
:1001060050130BBB0003020378ED13FDEE13FEEF55
:0801160013FFEC13FC0203507F
:10011E00EC4D6011E8497017ED33EC3304600DE4DB
:10012E00FCFFFEFD22E933E8330470F802036E1281
:10013E00033958046009E4CC248150062850090282
:10014E000378284003020375C0E0EB4A7044B9807F
:10015E0006D0E0FB020364EF4E701CBD8008EBFF7F
:10016E00EAFEE9FD80EBE98DF0A4FEE5F002020760
:10017E00E9CDF9EAFEEBFFEF89F0A4FCE5F0CE89BC
:10018E00F0A42EFFE435F0CD89F0A42DFEE435F079
:10019E008067EF4E7005BD80D780C3EF8BF0A4ACA7
:1001AE00F0EE8BF0A42CFCE435F0F8EF8AF0A42CE2
:1001BE00E5F038FCE433CB8DF0A42CFCE5F03BF8F5
:1001CE00EE8AF0A42CFCE5F038F8E433CF89F0A4E5
:1001DE002CFCE5F038CF3400CE89F0A42FFFE5F0EB
:1001EE003EFEE433C98DF0A42EFEE5F039CD8AF043
:1001FE00A42FFFE5F03EFEE43DFD33D0E0FB5007BB
:10020E000BBB000F020378EC2CFCEF33FFEE33FE3A
:06021E00ED33FD02035068
:10022400020378EC5D046005E85904700302036E70
:10023400120339580460F6EC4860F2EC7004FDFED9
:10024400FF22C860DB2481C85009C39860025006AD
:100254000203759850CAF582E9294B4A7005AB82AE
:1002640002036475F0007C1A7880C3EF9BEE9AED6C
:1002740099400DC3EF9BFFEE9AFEED99FDE842F025
:10028400DC23ACF0D0E0FFD0E0FED0E0FDAB822078
:10029400E7101BEB60BAEC2CFCEF33FFEE33FEED02
:1002A40033FD020350E803F830E705C0F075F000B1
:1002B400EF2FFFEE33FEED33FD40B830E7C280AAE6
:1002C40075F020800E75F010800575F0087D007EB5
:1002D400007F003392D530D5031205B3EC334010C0
:1002E400EF33FFEE33FEED33FDEC33FCD5F0ED22BE
:0E02F400E5F0247EA2D513CC92E7CDCEFF22FA
:10030200EDD2E7CD33EC3392D524814006E4FFFEF3
:10031200FDFC22FCE4CFCECDCC24E0501174FF8052
:10032200EDC3CC13CCCD13CDCE13CECF13CF0470EF
:07033200F030D5DE0205B337
:10073000E5562442F8E6055622783F30100278420A
:10074000E475F0011205D70205252009EB7F2ED2B2
:10075000098018EF540F2490D43440D4FF300D0B8F
:10076000EF24BFB41A0050032461FFE5576002155F
:1007700057055AE55A7002055930100D783FE47557
:10078000F0011205D7EF02056B0200037403D210CB
:100790008003E4C210F5568B3F8A408941E4F55747
:1007A000F559F55AE55760077F2012076B80F575FC
:1007B00058FFC20AC209C20BC20CC20EC20FC2113C
:1007C000120739FF700D3010057F0012077CAF5AF9
:1007D000AE5922B4255FC2D5C20D120739FF24D00D
:1007E000B40A00501A75F00A785730D50508B6FFDC
:1007F0000106C6A426F620D5047002D20C80D924A6
:10080000CFB41A00EF5004C2E5D20D020A69D20A31
:1008100080C6D20980C0D20B80BCD2D580BAD20E9D
:1008200080B47F2012076B200B077401B55700407E
:10083000F1120730FF12076B0207A4D211D20F800A
:1008400095120730FB120730FA120730F94A4B7045
:100850000679607A0B7BFF200B2EE557602A7E001D
:100860008E8275830012053E60060EEE655870F0AC
:10087000C2D5EBC0E0EAC0E0E9C0E0EE120AC9D0A0
:10088000E0F9D0E0FAD0E0FB120525FF60AAEBC04A
:10089000E0EAC0E0E9C0E012076BD0E02401F9D043
:1008A000E03400FAD0E0FBE5580460DCD558D9808C
:1008B00087D20B80A2120AAC60F7E55870010412CF
:1008C0000383A958600DE558600914F558120B53BD
:1008D000EF60F3EA30E702F404C3995077EAF425B5
:1008E000580430E701E404F558800D120AAC60C1E9
:1008F000EA05582558120383EA7855F630E701E4F3
:10090000255804D55804200E0114120AC9E4C0E089
:10091000120B537855E6601320E70714F6120753BD
:10092000802204F6D0E014C0E07F00120753E5589F
:10093000600712074A1558800B300E0312074AD081
:10094000E00207A4D0E00480C5120AAC60A0E5581C
:10095000041203837855EAF6E558200E026001047C
:050960002404120AC985
:1009650074FF04C0E0120B53120753E558200E0222
:10097500600312074AD0E0B558E87F4512075D7855
:1009850055E67F2B30E7047F2DF404C0E012076B9A
:10099500D0E075F00A84C0F0120754D0E012075475
:1009A5000207A4791080027908C20FC2118008D20B
:1009B500D5790A8004790AC2D5E558047002F5583C
:1009C500E4FAFDFEFF120730FC7B08200A1312072C
:1009D50030FD7B1030090A120730FE120730FF7B0D
:1009E50020EC3382D592D55013C3E43009069FFF1E
:1009F500E49EFEE4200A039DFDE49CFCE4CBF8C2E2
:100A05000AEC700CCFCECDCCE824F8F870F3801743
:100A1500C3EF33FFEE33FEED33FDEC33FCEB33FB7D
:100A2500994002FB0FD8E9EB300A05F8D0E0C4483D
:100A3500B20AC0E00AEC4D4E4F78207B0070C2EA46
:100A4500B5580040BCC0E0120ACBD0F0D0E0200A77
:100A550004C4C0E0C4B20AC0F0120754D0F0D5F007
:100A6500EB0207A41205E708415309A85808124CE0
:100A7500080E4209AC4F09B44409B4490827430993
:100A8500BA5508EB4609494508B5470B8050081685
:100A95002D081A2E083D2B081E23083B200B692A1A
:100AA50007D64800000835E558B4FF037558061207
:100AB5000730FC120730FD120730FE120730FF78B1
:100AC5004E0203B2790AA2D5200C14300E09B910D2
:100AD500020404B9080104A2D5200F025001042024
:100AE5000B68920BB557005034C0E07F20300C19CD
:100AF5007F30A20B720F720E500F120B22C20BC267
:100B05000FC20EC2117F30800F300E03E9C0E01214
:100B1500076B300E03D0E0F9D0E0B557CC300E1797
:100B25007F30B9100C12076B7F58300D077F788026
:100B350003B9080312076B300B057F2D02076B7F86
:100B4500202011F87F2B200FF322920B80CF7F00FE
:100B5500B407005005244EF8E6FF22286E756C6C2C
:100B65002900D20A120730300AF8C20A785730D560
:100B75000108F60207D62D504349581207302403C1
:100B8500B405004001E4900B7B9312075C743A12A4
:0A0B9500075CD20C7557040209A892
:10033900E9D2E7C933E833F892D5EDD2E7CD33EC0A
:0703490033FC5002B2D52283
:10035000EC30E7100FBF000C0EBE00080DBD00040E
:100360000BEB6014A2D5EB13FCED92E7FD2274FFBA
:10037000FCFDFEFF22E480F8A2D574FF13FC7D8013
:03038000E480EF27
:10038300F920E72824F950037907E4F42402FB1841
:10039300DBFDE624FB5014E9600DE4F618E604F6F1
:0F03A300B40A08E4F6D9F57401F60A22C2D5228D
:1003B200ED33EC3392D5FA602AB4FF33EDC2E77B1A
:1003C200FF60067A0379D7E4227A0379E020D50424
:1003D2007A0379DB224E614E002B494E46002D49AD
:1003E2004E4600E47A08F608DAFC7B00740722E83D
:1003F200C0E0ECC0E0EDC0E0EEC0E0EFC0E0EA75C6
:10040200F010A4CAABF075F04DA42BFBE435F0FC60
:10041200EA2410FAEB34C5FBEC34D9FCEDC2E7FF59
:1004220075F056A4F42411C5F0F434C58FF0A42A53
:10043200E5F03BE43CF620E7141204E5D0E0FFD0FF
:10044200E0FED0E0FDD0E0FC1202278014F404129A
:1004520004E5D0E0FFD0E0FED0E0FDD0E0FC1201E8
:100462001ED0E0F8E6FAEDD2E7CD33EC332482FB7E
:10047200E4C3CF33CFCE33CECD33CD33DBF37B07E3
:1004820075F00A846004F6081B0AE5F0F6088FF09E
:10049200740AA4FFACF08EF0740AA42CFEACF050E7
:1004A200010C8DF0740AA42CFDE435F0F608DBDEB5
:0304B200740722AA
:1004B5003F8000004120000042C80000447A00004F
:1004C500461C400047C35000497424004B189680D1
:1004D5004CBEBC205A0E1BCA6753C21C749DC5AEC8
:1004E500FB60065407601C2323120513EB54386088
:1004F500091204FF12050E12011EECF8EDF9EEFAD1
:10050500EFCB22EB12050E80F1543803241C900426
:10051500B5FE93FC0EEE93FD0EEE930ECE93FF22E9
:03000000020E9F4E
:0C0E9F00787FE4F6D8FD75815A020EE65B
:10052500BB010689828A83E0225002E722BBFE02D4
:09053500E32289828A83E4932207
:10053E00BB010CE58229F582E5833AF583E0225072
:10054E0006E92582F8E622BBFE06E92582F8E222BC
:0D055E00E58229F582E5833AF583E49322D6
:10056B00BB010689828A83F0225002F722BBFE016F
:02057B00F32269
:10057D00C2D5EC30E709B2D5E4C39DFDE49CFCEE99
:10058D0030E715B2D5E4C39FFFE49EFE12060DC3FE
:10059D00E49DFDE49CFC800312060D30D507C3E4F9
:0605AD009FFFE49EFE2208
:1010AF00C2D5E830E70FB2D5E4C39BFBE49AFAE46C
:1010BF0099F9E498F8EC30E717B2D51210E512065B
:1010CF009EE4C39BFBE49AFAE499F9E498F8800351
:1010DF0012069E30D50DE4C39FFFE49EFEE49DFDF6
:0410EF00E49CFC225F
:0E05B300C3E49FFFE49EFEE49DFDE49CFC2259
:1005C100EB9FF5F0EA9E42F0E99D42F0EC6480C8B1
:0605D10064809845F02251
:1005D700FAE6FB0808E6F925F0F618E6CA3AF62225
:1005E700D083D082F8E4937012740193700DA3A3A3
:1005F70093F8740193F5828883E4737402936860B7
:06060700EFA3A3A380DFB6
:100EAB00020DFAE493A3F8E493A34003F68001F256
:100EBB0008DFF48029E493A3F85407240CC8C33348
:100ECB00C4540F4420C8834004F456800146F6DF17
:100EDB00E4800B010204081020408090000EE47E99
:100EEB00019360BCA3FF543F30E509541FFEE4930C
:100EFB00A360010ECF54C025E060A840B8E493A3D3
:100F0B00FAE493A3F8E493A3C8C582C8CAC583CAFD
:100F1B00F0A3C8C582C8CAC583CADFE9DEE780BEB5
:0100220000DD
:10060D00BC000BBE0029EF8DF084FFADF022E4CCD1
:10061D00F875F008EF2FFFEE33FEEC33FCEE9DEC9A
:10062D00984005FCEE9DFE0FD5F0E9E4CEFD22EDE0
:10063D00F8F5F0EE8420D21CFEADF075F008EF2F2A
:10064D00FFED33FD4007985006D5F0F222C398FD1B
:05065D000FD5F0EA22B8
:1006620075F008758200EF2FFFEE33FECD33CDCC4F
:1006720033CCC58233C5829BED9AEC99E5829840D2
:100682000CF582EE9BFEED9AFDEC99FC0FD5F0D6AF
:10069200E4CEFBE4CDFAE4CCF9A88222B800C1B9D9
:1006A2000059BA002DEC8BF084CFCECDFCE5F0CB17
:1006B200F97818EF2FFFEE33FEED33FDEC33FCEB50
:1006C20033FB10D703994004EB99FB0FD8E5E4F90B
:1006D200FA227818EF2FFFEE33FEED33FDEC33FCF8
:1006E200C933C910D7059BE99A4007EC9BFCE99AEC
:1006F200F90FD8E0E4C9FAE4CCFB2275F010EF2F31
:10070200FFEE33FEED33FDCC33CCC833C810D70730
:100712009BEC9AE899400AED9BFDEC9AFCE899F86B
:0E0722000FD5F0DAE4CDFBE4CCFAE4C8F922FE
:00000001FF
